:020000020000FC
:1000000006C001020507080C1400FA0114090F9339
:100010001F934F932F933F93E2E0F0E0C0E0D2E0D4
:1000200010E047E0141721F0059109931395FACFDA
:10003000EAE0F0E044E010E0141721F005910993A4
:100040001395FACF0F911F914F912F913F9100D0AF
:100050000F931F934F932F933F93C0E0D2E010E094
:100060004DE029913881321710F031F009C0032F8B
:1000700028830A93219604C0032F28831A9221967D
:100080001395141770F34A95403021F010E0C0E04A
:10009000D2E0E7CF0F911F914F912F913F9100D068
:1000A000CC27002711272227332744275527F8CFAD
:00000001FF
